:100000000A128A150B2C1034103420342034F100DD
:10001000C330F00070088312031387057108C33AD8
:1000200003191328142818287108F0007008870491
:100030000800F20044282008840083130008F00020
:1000400072088400000870060319272828283C2815
:10005000200884000008F000F101F009F109F00A1D
:100060000319F10A7208840000087007A0007108E3
:100070000318710AA1005A280130F0007008F20735
:100080000130F0007008A007013083120313A102B1
:100090000030031CA203A202FF302206031D5228D7
:1000A000FF302106031D552856281B280030A000CC
:1000B0000030A100080083120313BC007608B900C9
:1000C0007708BA007808BB00323084005F30A600A1
:1000D0000408A7000730A80026088400831300083E
:1000E000A900A60A2708840029088000A70AA80BEF
:1000F0006C282A3084005730A6000408A700083076
:10010000A8002608840083130008A900A60A27086F
:10011000840029088000A70AA80B812800300A1251
:100120008A15E7240A128A11E928031000300318FF
:100130000130BD003D08393E8400831300080A12D7
:100140008A15A6240A128A11013083120313A6000D
:100150002608BD0703303D02031CAF28B0289A28AB
:10016000F3280310003003180130BD003D082A3E7B
:100170008400831300080A128A15A6240A128A1121
:10018000013083120313A6002608BD0708303D0284
:10019000031CCB28CC28B628F32803100030031802
:1001A0000130BD003D08323E8400831300080A126E
:1001B0008A15A6240A128A11013083120313A6009D
:1001C0002608BD0707303D02031CE728E828D2288F
:1001D000F328831203133C08103A03199528303A88
:1001E0000319B128CD280800FF30F20003100030B9
:1001F0000318013083120313860003100030031824
:100200000130F100AF298312031306150330F0000B
:10021000F00B082983120313051C0F291029162936
:100220000310003003180130F2002C29851C192915
:100230001A291E29F2010314F20D2C29051D21296A
:10024000222925290230F2002C29851D2829292957
:100250002C290330F2002C29FB30F00070088605B1
:10026000BD298312031386150330F000F00B3629E5
:1002700083120313051C3D293E2941290430F20055
:100280005629851C4429452948290530F20056295C
:10029000051D4B294C294F290630F2005629851D92
:1002A0005229532956290730F2005629F730F00019
:1002B00070088605BD298312031306160330F0006B
:1002C000F00B602983120313051C672968296B2929
:1002D0000830F2008029851C6E296F2972290930A7
:1002E000F2008029051D7529762979290A30F20046
:1002F0008029851D7C297D2980290B30F2008029E9
:10030000EF30F00070088605BD29831203138616AE
:100310000330F000F00B8A2983120313051C912986
:10032000922995290C30F200AA29851C982999292F
:100330009C290D30F200AA29051D9F29A029A32977
:100340000E30F200AA29851DA629A729AA290F3057
:10035000F200AA29DF30F00070088605BD29710877
:10036000003A03190329013A03193129033A031901
:100370005B29013A03198529BD297208FF3A03193F
:10038000C229C329C429CE290130F0007008F10721
:1003900004307102031CCD29CE29AF297208080050
:1003A0001A30F100F830F000F00BD429F10BD42909
:1003B0006400C330F0007008831203138705051230
:1003C0000C30F000700887040A128A1519220A12EC
:1003D0008A110730F1007D30F000F00BED29F10BB0
:1003E000ED29C330F000700883120313870505124E
:1003F0000C30F000700887040A128A1519220A12BC
:100400008A112130F000F00B032AC330F00070088D
:1004100083120313870505120C30F000700887045F
:100420000A128A1519220A128A112130F000F00BE3
:10043000172AC330F00070088312031387050512D2
:1004400087150A128A1519220A128A112130F00022
:10045000F00B282AC330F0007008831203138705BD
:10046000051287150A128A1519220A128A11C33039
:10047000F0007008831203138705051287160A120D
:100480008A1519220A128A112130F000F00B462A2F
:10049000C330F000700883120313870505120708A4
:1004A0000A128A1519220A128A11C330F000700844
:1004B000831203138705051287160A128A1519225B
:1004C0000A128A112130F000F00B642AC330F000C8
:1004D0007008831203138705051207080A128A158C
:1004E00019220A128A11C330F00070088312031314
:1004F0008705051207150A128A1519220A128A1190
:100500000330F1009730F000F00B842AF10B842ABD
:10051000892AC330F000700883120313870505127F
:1005200007080A128A1519220A128A11C330F0002C
:10053000700883120313870505121830F000700845
:1005400087040A128A1519220A128A112130F00032
:10055000F00BA82AC330F00070088312031387053C
:10056000051207080A128A1519220A128A11C330C5
:10057000F000700883120313870505123030F00075
:10058000700887040A128A1519220A128A1121306A
:10059000F000F00BC92A0800003083120313A200F8
:1005A0000030A3000830A4000030A50048300A1233
:1005B0008A159B230A128A11831203130718E12A52
:1005C000E22ADC2A0A128A1589220A128A11831267
:1005D0000313071CEC2AED2AE72A0C300F02031C38
:1005E000F22AF32AFC2A11300F020318F82AF92AFA
:1005F000FC2A2030F900152B1F300F02031C012BA1
:10060000022B0B2B28300F020318072B082B0B2B68
:100610001030F900152B04300F02031C102B112B86
:10062000132B0F30902CFF30902C0A128A15892240
:100630000A128A118312031307181F2B202B1A2B5F
:100640007908103A031D252B262B2D2B10300F0275
:1006500003182B2B2C2B2D2B132BA6010314A60DCB
:100660007908103A031D352B362BBA2B03100030B6
:1006700003180130A700071C3E2B3F2B3B2B0A120F
:100680008A1589220A128A11831203130718492B2B
:100690004A2B442B04300F02031C4F2B502BAF2B43
:1006A000083027020318552B562B682B26080139D2
:1006B000F1002703FF3A073E013E602B0310F10DC6
:1006C000FF3E031D5E2B7108F2007208C804AF2BB9
:1006D0001030270203186D2B6E2B822B2608013950
:1006E000F1002708F83EFF3A013E073E013E7A2B13
:1006F0000310F10DFF3E031D782B7108F200720804
:10070000C904AF2B183027020318872B882B9C2B8A
:1007100026080139F1002708F03EFF3A013E073E66
:10072000013E942B0310F10DFF3E031D922B710827
:10073000F2007208CA04AF2B26080139F10027081D
:10074000E83EFF3A013E073E013EA82B0310F10DA3
:10075000FF3E031DA62B7108F2007208CB04013086
:10076000F1007108A70720302702031CB82BB92B12
:100770003B2B772C7908203A031DBF2BC02B772CFD
:100780000310003003180130A700071CC82BC92B29
:10079000C52B0A128A1589220A128A1183120313A1
:1007A0000718D32BD42BCE2B03300F02031CD92BCD
:1007B000DA2B6D2C083027020318DF2BE02BF22BED
:1007C00026080139F1002703FF3A073E013EEA2BD4
:1007D0000310F10DFF3E031DE82B7108F2007208B3
:1007E000C8046D2C103027020318F72BF82B0C2CA3
:1007F00026080139F1002708F83EFF3A013E073E7E
:10080000013E042C0310F10DFF3E031D022C710864
:10081000F2007208C9046D2C183027020318112C3D
:10082000122C262C26080139F1002708F03EFF3A49
:10083000013E073E013E1E2C0310F10DFF3E031D3D
:100840001C2C7108F2007208CA046D2C203027029B
:1008500003182B2C2C2C402C26080139F1002708DA
:10086000E83EFF3A013E073E013E382C0310F10DF1
:10087000FF3E031D362C7108F2007208CB046D2C6C
:10088000283027020318452C462C5A2C26080139FB
:10089000F1002708E03EFF3A013E073E013E522CA0
:1008A0000310F10DFF3E031D502C7108F200720879
:1008B000CC046D2C26080139F1002708D83EFF3AF8
:1008C000013E073E013E662C0310F10DFF3E031D65
:1008D000642C7108F2007208CD040130F100710837
:1008E000A70730302702031C762C772CC52B071C5A
:1008F0007A2C7B2C772C0A128A1589220A128A11EB
:10090000892C08300F02031C862C872C892C003080
:10091000902C8312031307188E2C8F2C812C112BF3
:100920000800CF308316031385000310003003182E
:100930000130860081308700031000300318013039
:10094000831203139F000310003003180130831635
:1009500003178800031000300318013089000730A6
:10096000831203178700073088001930831603139A
:1009700092000C308312031392000C309B00203045
:100980009D0090010314900D0310003003180130F6
:100990008E0003100030031801308F000C108316F6
:1009A00003130C14031000300318013083120313D7
:1009B00085000310003003180130860001308700E5
:1009C0000508C039C03A031DE62CE72C332D03106F
:1009D00000300318013083160313BC0004300A12E0
:1009E0008A1107200A128A110A128A11F4200A12A7
:1009F0008A1183160313C0004008FF3A031D012D1E
:100A0000022D082D0A128A152E230A128A11F42C9F
:100A10000430400203180D2D0E2D262D4008BC0079
:100A2000043083120313BE0083160313400A1C2DE7
:100A3000031083120313BE0DFF3E031D182D3E0845
:100A40000A128A1107200A128A11F42C4008831214
:100A50000313B100831603133C080A128A156B278F
:100A60000A128A11F42C0508C039403A031D392DA9
:100A70003A2D7C2E3C300A128A1107200A128A1164
:100A80000A128A11F4200A128A1183160313C00075
:100A90000430400203184D2D4E2D402D4008BC005F
:100AA000043083120313BE0083160313400A5C2D27
:100AB000031083120313BE0DFF3E031D582D3E0885
:100AC0000A128A1107200A128A110A128A11CC22EC
:100AD0000A128A1183160313BD00BD08031D712D70
:100AE000722D732D9A2D3D080F3A031D782D792D07
:100AF000652DC3300A128A1107200A128A11C330E9
:100B000083120313BF00CD30BE00BE0B852DBF0B7B
:100B1000852D3C300A128A1107200A128A11C3302F
:100B200083120313BF00CD30BE00BE0B952DBF0B4B
:100B3000952D792D0310003003180130BF00C3300C
:100B40000A128A1107200A128A11C3308312031372
:100B5000BF00CD30BE00BE0BAB2DBF0BAB2D0430A4
:100B600083120313BE00831603133C0ABB2D03102C
:100B700083120313BE0DFF3E031DB72D3E080A125C
:100B80008A1107200A128A11C33083120313BF008F
:100B9000CD30BE00BE0BCA2DBF0BCA2D0130831253
:100BA0000313BE003E0883160313BF0702303F0243
:100BB000031CDB2DDC2D9F2D790883120313D0003D
:100BC0004830A0000830A1000030A20051300A12C5
:100BD0008A15E1230A128A110730F30083160313E2
:100BE00040080A128A1515230A128A118316031364
:100BF000BE00831603178C18FE2DFF2DF92D8316CA
:100C000003133E08831203178D0083120313500849
:100C1000831203178C003F3083120313BE003E087B
:100C2000831603178C058312031303108B1F192ED1
:100C30001A2E1B2E03148B13831603170C15553015
:100C40008D00AA308D008C140C1183120313031C29
:100C50002A2E2B2E2C2E8B170130BE003E08831619
:100C60000313BE070310003003180130BF008316C2
:100C700003178C183C2E3D2E372E831603133F0886
:100C80003E07831203178D00831603133F08513E5E
:100C9000840083130008831203178C003F308312F3
:100CA0000313BE003E08831603178C05831203133B
:100CB00003108B1F5C2E5D2E5E2E03148B13831688
:100CC00003170C1555308D00AA308D008C140C11B3
:100CD00083120313031C6D2E6E2E6F2E8B170130A3
:100CE000BE003E0883160313BF0708303F02031CF3
:100CF0007A2E7B2E372E7B2E0508C039803A031DB5
:100D0000822E832E3B2F03100030031801308316F0
:100D10000313BF003F08831203178D003F30831277
:100D20000313BE003E08831603178C050C148312B0
:100D300003170C0883120313BE00831603133F0826
:100D4000A03E8400831203133E0880000130BE00E1
:100D50003E0883160313BF071C303F02031CB12E4D
:100D6000B22E8A2E0A128A11F4200A128A118316D0
:100D70000313C0004008FF3A031DBF2EC02EC62E2D
:100D80000A128A152E230A128A11B22E043040024A
:100D90000318CB2ECC2EB22E0730F30040080A12D7
:100DA0008A1515230A128A1183160313BE003E0802
:100DB000A03E840083130008103A0319E02EE12EB0
:100DC000EA2E3E08A03E84000008203A031DE92ECA
:100DD000EA2EB22E043083120313BE0083160313CF
:100DE000400AF62E031083120313BE0DFF3E031DAF
:100DF000F22E3E080A128A1107200A128A1183165F
:100E000003133E08A03E840083130008103A031D1C
:100E10000A2F0B2F202F013083120313BE003E0830
:100E200083160313BE073E08A03E83120313A600D9
:100E30008030A7000A128A15E9250A128A11342F78
:100E4000013083120313BE003E0883160313BE074E
:100E50003E08A03E83120313A8008030A9000A12A6
:100E60008A1509270A128A11C3300A128A1107202B
:100E70000A128A11B22E0508C039031D402F412FD6
:100E8000FD2F0A128A11D0210A128A110030831212
:100E90000313A2000030A3000830A4000030A50016
:100EA00040300A128A159B230A128A110A128A11EB
:100EB000CC220A128A1183160313BD00822F0A3036
:100EC0000A128A1513220A128A11952F05300A1266
:100ED0008A1513220A128A11952F00300A128A15D8
:100EE00013220A128A11952F04300A128A1513222E
:100EF0000A128A11952F01300A128A1513220A123A
:100F00008A11952F831203134D080D3A03196D2F83
:100F1000503A03195F2F303A0319662F903A03199C
:100F20007B2F023A0319742F952F48308312031335
:100F3000A0000830A1000030A20040300A128A113F
:100F400019200A128A118313831203132108200423
:100F50000319AB2FAC2F562F83160313BD08031DA7
:100F6000B22FB32FDD2F0A128A15BD230A128A1160
:100F700079080A128A115B200A128A11D52F0430CF
:100F800083120313AC0048300A128A153B240A125C
:100F90008A11EE2F063083120313AC0048300A1278
:100FA0008A153B240A128A11EE2F7908103A031988
:100FB000BF2F303A0319CA2FEE2F3D080F3A031DF9
:100FC000E22FE32FEE2F0A128A15BD230A128A118F
:100FD00030300A128A115B200A128A1148308312BB
:100FE0000313A0000830A1000030A20040300A1214
:100FF0008A15E1230A128A11562F0A128A11002833
:10140000FE00FE1F082A83137E18831700080800B9
:101410008A000408820064008001840A040603191B
:10142000003404060C2AF0007008831203138600AF
:101430000800831203138516851208004E344534C4
:02144000433433
:1014F4004B344134443445344E344B3459344F34F2
:1015040055344E344B344E344F3457344E34031028
:10151400003003180130831203138E0003100030CF
:10152400031801308F000C10831603130C140800E9
:101534007E088A007F0882009A220A128A15800097
:10154400840A04087D0603190034FF0A0319FE0AFD
:101554009E2A2C30831203139D00BD30F000F00B43
:10156400B12AB42A2030831203139D00FD30F00009
:101574007008870508002C30831203139D008B30FC
:10158400F000F00BC32AC62A2030831203139D00F7
:10159400FD30F0007008870508002C308312031317
:1015A4009D008B30F000F00BD52AD82A203083120E
:1015B40003139D00FD30F000700887056330F000D0
:1015C400F00BE22AE52A08002C30831203139D0055
:1015D400BD30F000F00BEC2AEF2A20308312031305
:1015E4009D00FD30F00070088705A930F000F00B75
:1015F400F92AFC2A08002C30831203139D008B3037
:10160400F000F00B032B062B2030831203139D00F4
:10161400FD30F000700887059D30F000112B122B6F
:10162400F00B102B0800F2000310003003180130F7
:10163400F100721C1E2B1F2B232B7308F000700863
:10164400F1070310F30D0310F20CF208031D2B2B0A
:101654002C2B1B2B710808000F30831203138500F9
:101664003C308600831603130117831203138B1077
:101674000B166300F930F0006400F00B3E2B422B94
:101684006400831203138B100B1208002C30831296
:1016940003139D00BD30F000F00B4E2B512B203076
:1016A400831203139D00FD30F00070088705E430B9
:1016B400F0005C2B5D2BF00B5B2B602B64000800AF
:1016C4002C30831203139D000530F1003730F000F5
:1016D400F00B6A2BF10B6A2B2030831203139D004D
:1016E400FD30F00070088705D630F000792B7A2B96
:1016F400F00B782B640008002C30831203139D0038
:101704000C30F100AF30F000F00B862BF10B862B80
:101714002030831203139D00FD30F000700887050C
:101724000630F100D730F000F00B962BF10B962B1E
:10173400080083120313A0002008A100AC2B220888
:10174400F000210884007008831380000130F00049
:101754007008A1070130A4020030031CA503A502F0
:10176400FF302506031DB82BFF302406031DBB2BB9
:10177400BC2BA12B0800C330F000700883120313A4
:101784008705051207080A128A1519220A128A15F2
:10179400C330F00070088312031387050512071580
:1017A4000A128A1519220A128A150330F100973099
:1017B400F000F00BDB2BF10BDB2BE02B0800F1002E
:1017C400831203132008F2007108F300FA2B720845
:1017D400840083130008F0007308840070088000FC
:1017E4000130F0007008F2070130F0007008F307D0
:1017F4000130A1020030031CA203A202FF30220622
:10180400031D062CFF302106031D092C0A2CE92B8D
:101814000800F90183134030840057300A128A15F6
:101824000B220A128A15A0308400BC300A128A15D1
:101834000B220A128A157930FD000A30FE001E3090
:10184400FF00763084000A128A159E220A128A1535
:101854006630FD000A30FE007A30FF005730840005
:101864000A128A159E220A128A1583010A128A1103
:10187400912C83120313A9002C08031D422C6B2CFA
:1018840040300A128A15E7240A128A150310003020
:101894000318013083120313AB00652C290884005C
:1018A40083130008AA002A080A128A156C240A1253
:1018B4008A150130F300730883120313A90701305A
:1018C400F3007308AB072C082B02031C6A2C6B2C47
:1018D400502C080083120313A6002608F039A80030
:1018E4002808F10004300310F10CFF3E031D752C91
:1018F4007108A8002808303EA8003A302802031CCA
:10190400842C852C882C2808073EA80026080F392B
:10191400A7002708303EA7003A302702031C932C67
:10192400942C972C2708073EA70028080A128A152A
:10193400A6240A128A158312031327080A128A1589
:10194400A6240A128A15080083120313A40024088B
:10195400F039A5002508F00002300310F00CFF3E1A
:10196400031DAF2C7008A500C330F0007008870574
:1019740005162508F000700887040A128A15192232
:101984000A128A158312031324080F39A5002508A7
:10199400F00001300310F00DFF3E031DCC2C0310AA
:1019A400700DA500C330F0007008870505162508E2
:1019B400F000700887040A128A1519220A128A157F
:1019C4000D30F000F00BE42C0800F1007108F03940
:1019D400F2007208F00002300310F00CFF3E031D09
:1019E400EE2C7008F200F216C330F0007008831277
:1019F4000313870505127208F000700887040A12A1
:101A04008A1519220A128A1571080F39F200720810
:101A1400F00001300310F00DFF3E031D0C2D0310E8
:101A2400700DF200C330F0007008831203138705B1
:101A340005127208F000700887040A128A15192228
:101A44000A128A150D30F000F00B262D08005534CB
:101A54005A34F134483468348B3400340034553407
:101A64005A34F1344834C8348134003400345534A1
:101A74005A34F134483428348F3400340034553423
:101A84005A34F1344834A83487340034003455349B
:101A94005A34F134483488348534003400345534AD
:101AA4005A34F134483448348934003400345534D9
:101AB4005A34F134483480348D340034003455348D
:101AC4005A34F1344834C034893400340034553441
:101AD4005A34F134483420348734003400345534D3
:101AE4005A34F13448346034833400340034553487
:101AF4005A34F134483410348434003400345534C6
:101B04005A34F1344834503480340034003440348E
:101B1400043401340034BC34BD3400340034403463
:101B2400043401340034A034A1340034003440348B
:101B340004340134003404340534003400344034B3
:101B440004340134003484348534003400344034A3
:101B54000434013400342C342D3400340034403443
:101B6400043401340034AC34AD3400340034403433
:101B7400043401340034083409340034003440346B
:101B840004340134003448344934003400344034DB
:101B9400043401340034C834C934003400344034CB
:101BA400043401340034A834A934003400344034FB
:101BB400043401340034E834E9340034003440346B
:101BC40004340134003498349934003400340A1253
:101BD4008A157E230A128A15031000300318013077
:101BE40083120313A5000310003003180130A4006E
:101BF4002708F3002608F2002508720784007308FA
:101C04000318730A0A128A1500220A128A15F400AC
:101C14008030F500240A102E0310F50CFF3E031D3E
:101C24000E2E750874050319182E192E1F2E0A126C
:101C34008A1548230A128A15242E0A128A15E622C6
:101C44000A128A150130F200720883120313A407E2
:101C540008302402031C2F2E302EFA2D0130F200FE
:101C64007208A50704302502031C392E3A2EF52DDF
:101C74000A128A15AB220A128A152530F3005B304A
:101C8400F200F20B432EF30B432E482E08000A34C5
:101C9400F534E834173400340034003400340A34A2
:101CA400F53490346F3400340034003400340A3492
:101CB400F5344834B73400340034003400340A3482
:101CC400F534A834573400340034003400340A3472
:101CD400F5349834673400340034003400340A3462
:101CE400F5341834A73400340034003400340A3492
:101CF400F534B0344F3400340034003400340A3442
:101D0400F534F0340F3400340034003400340A3431
:101D1400F5343834C73400340034003400340A3421
:101D2400F5347834873400340034003400340A3411
:101D3400F5342034DF3400340034003400340A3401
:101D4400F53460349F3400340034003400340234F9
:101D5400FD344834B73400340034003400340234E1
:101D6400FD34F0340F3400340034003400340234D1
:101D7400FD345834A73400340034003400340234C1
:101D8400FD347834873400340034003400340234B1
:101D9400FD34D834273400340034003400340234A1
:101DA400FD34F83407340034003400340034023491
:101DB400FD3480347F340034003400340034023481
:101DC400FD344034BF340034003400340034023471
:101DD400FD342034DF340034003400340034023461
:101DE400FD34A0345F340034003400340034023451
:101DF400FD3460349F340034003400340034023441
:101E0400FD341034EF3400340034003400340A124A
:101E14008A1562230A128A15031000300318013050
:101E2400F3000310003003180130F200831203138F
:101E34002908A5002808A40073082407840025089D
:101E44000318250A0A128A1500220A128A15A60006
:101E54008030A700720A302F0310A70CFF3E031D29
:101E64002E2F270826050319382F392F3F2F0A1242
:101E74008A15FD220A128A15442F0A128A15CF22C6
:101E84000A128A15013083120313A4002408F207EE
:101E940008307202031C4F2F502F182F0130A4005A
:101EA4002408F30706307302031C592F5A2F132FEB
:101EB4000A128A15BD220A128A155230831203139C
:101EC400A500D030A400A40B652FA50B652F6400DA
:101ED400080083120313B0003008033E840000306E
:101EE4000318013E0A128A1500220A128A15AD004F
:101EF400B008031D7E2F7F2F952F3108AA000230D2
:101F04000310AA0DFF3E031D822F03102A0DE03E8D
:101F1400A93EAB000E300318013EAC002B08AE0006
:101F24002C08AF00E22F3008013A031D9A2F9B2F93
:101F3400B12F3108AA0002300310AA0DFF3E031D81
:101F44009E2F03102A0DE03E493EAB000E300318CD
:101F5400013EAC002B08AE002C08AF00E22F300885
:101F6400023A031DB62FB72FCD2F3108AA00023035
:101F74000310AA0DFF3E031DBA2F03102A0DE03EE5
:101F8400293EAB000D300318013EAC002B08AE0017
:101F94002C08AF00E22F3108AA0002300310AA0D6A
:101FA400FF3E031DD02F03102A0DE03E893EAB00F7
:101FB4000D300318013EAC002B08AE002C08AF0016
:101FC4002D08103A031DE72FE82FF42F2F08A7013F
:101FD400A7072E08A601A6070A128A15E9250A12E0
:101FE4008A15FF2F2F08A901A9072E08A801A80701
:0C1FF4000A128A1509270A128A15080033
:02400E00F42C90
:00000001FF
